:1000000010C01FC01EC01DC01CC01BC01AC019C01C
:1000100018C017C016C015C014C013C012C011C03C
:1000200010C011241FBECFE5D2E0DEBFCDBF10E06F
:10003000A0E6B0E001C01D92A837B107E1F7DFD01C
:100040009AC2DECF8F929F92AF92BF92CF92DF92F1
:10005000EF92FF920F931F93CF93DF93EC01972EB4
:10006000991C9924991C990C9C0197FF04C0222784
:100070003327281B390B77FF03C0709561957F4F9D
:100080008824261737074CF488248394C901969551
:10009000982F88279795879507C0CB019695982F1D
:1000A000882797958795B90102D27B010027F7FC35
:1000B0000095102FC801B70126EA3CE140E050E06E
:1000C000DDD15B016C01C801B701A8019701D6D150
:1000D0002CE130E040E050E0D1D124E630E040E0D7
:1000E00050E0F8D12050304C4F4F5F4FC601B50162
:1000F000F1D1882031F08AE590E0AC01421B530B2E
:100100009A018D2F992787FD90958827990F881F31
:100110009927890D911D8130910571F082309105EB
:100120001CF4892BA9F005C08230910541F003979A
:1001300069F020E030E00CC084EB90E002C088E67B
:1001400091E0AC01421B530B9A0102C02C543F4F6B
:10015000C901DF91CF911F910F91FF90EF90DF9038
:10016000CF90BF90AF909F908F90089590E690931E
:100170007000109271008093720080E790E063E05D
:10018000E2D030D1E0E2FEE43197F1F708950F9329
:100190001F9381E0EBDF00E710E080E680937000C2
:1001A00010927100C80162E0CED081E680937000A9
:1001B000C80166E0C8D016D1909172009093690092
:1001C000E9E6F0E0909173009293209168003091FD
:1001D000690030936B0020936A00909174009093B3
:1001E00069009091750090832091680030916900BA
:1001F00030936500209364001F910F910895FF9242
:100200000F931F93CF93DF938FEF8ABB1BBA83E0CB
:1002100087BB84E088BB10E0C8ECD0E0812FEFD032
:1002200088EE93E0FE013197F1F70197D9F71F5F50
:100230001032A1F762D000E0C0E5D3EC10E1F12E5E
:100240000F5F003829F484E091DF82E08FDF00E067
:100250001092670010926600109261001092600088
:1002600010E095DF209166003091670080916A0070
:1002700090916B00280F391F309367002093660020
:1002800060916000709161008091640090916500C0
:10029000680F791F7093610060936000CE01019731
:1002A000F1F71F5F1830E9F6C901B3E0969587951D
:1002B000BA95E1F78050984090936D0080936C0060
:1002C000A3E076956795AA95E1F760507840709322
:1002D0006F0060936E00B6DE9093630080936200BF
:1002E000F4E0880F991FFA95E1F768E671E0DFD036
:1002F0006F708F2D861B83D0A3CFDE9ADC9AD49AA1
:10030000D69A8FEF8FB98AE28DB980EF8EB90895B2
:100310008091770008958EB93DE19BE22DE0832F17
:100320008A95F1F79DB9CC9BFECF822F8A95F1F784
:100330009DB9769BF4CF8DE18A95F1F78FB19FEF50
:100340009FB9D69A08950F931F93CF93DF93FC0123
:10035000162F81E080937700808180FD03C083E0C9
:1003600080937700DC9ADC9BFECF8DE0982F9A95E6
:10037000F1F7DE988A95F1F7DC98DE9AEF010FEF3E
:10038000809177008370C9F0DC9888818FB980EF05
:10039000C2DFD6988EEFBFDF9091770080FF09C053
:1003A00090FF02C086E001C085E08093770080E086
:1003B00014C09E7F909377000BC0D69880EFABDF80
:1003C0008883113011F40FB901C01FB88EEFA3DF7D
:1003D000115021961123A1F681E0DF91CF911F9159
:1003E0000F910895DE98DC9ACC9BFECF8DE08A9524
:1003F000F1F7DE9A8DE18A95F1F781E00895D898BA
:10040000D998DA98DB98282F30E0237030702130AB
:10041000310579F0223031051CF4232B41F00EC058
:100420002230310541F02330310541F406C0D89A1D
:1004300005C0D99A03C0DA9A01C0DB9ADD9ADF9A27
:10044000C09AC19A8695869590E0837090708130AD
:10045000910571F0823091051CF4892B39F00895D3
:100460008230910539F0039741F406C0DD98089574
:10047000DF980895C0980895C1980895FF27EE2742
:10048000BB27AA2760FF04C0A20FB31FE41FF51FFC
:10049000220F331F441F551F9695879577956795B3
:1004A00089F70097760771F7CF01BD01089597FB93
:1004B000092E07260AD077FD04D027D006D00020C9
:1004C0001AF4709561957F4F0895F6F79095819590
:1004D0009F4F089597FB092E05260ED057FD04D097
:1004E00028D00AD0001C38F45095409530952195BD
:1004F0003F4F4F4F5F4F0895F6F790958095709559
:1005000061957F4F8F4F9F4F0895AA1BBB1B51E1F1
:1005100007C0AA1FBB1FA617B70710F0A61BB70B73
:10052000881F991F5A95A9F780959095BC01CD0118
:100530000895A1E21A2EAA1BBB1BFD010DC0AA1F24
:10054000BB1FEE1FFF1FA217B307E407F50720F03C
:10055000A21BB30BE40BF50B661F771F881F991FB7
:100560001A9469F760957095809590959B01AC0100
:0A057000BD01CF010895F894FFCFFC
:00000001FF
